{
  "_format": "hh-sol-artifact-1",
  "contractName": "Factory",
  "sourceName": "contracts/protocol/Factory.sol",
  "abi": [
    {
      "inputs": [],
      "stateMutability": "nonpayable",
      "type": "constructor"
    },
    {
      "anonymous": false,
      "inputs": [
        {
          "indexed": true,
          "internalType": "address",
          "name": "",
          "type": "address"
        },
        {
          "indexed": true,
          "internalType": "address",
          "name": "",
          "type": "address"
        },
        {
          "indexed": true,
          "internalType": "uint256",
          "name": "",
          "type": "uint256"
        }
      ],
      "name": "NewPoolCreated",
      "type": "event"
    },
    {
      "inputs": [
        {
          "internalType": "address",
          "name": "",
          "type": "address"
        }
      ],
      "name": "AssetIndexes",
      "outputs": [
        {
          "internalType": "uint256",
          "name": "",
          "type": "uint256"
        }
      ],
      "stateMutability": "view",
      "type": "function"
    },
    {
      "inputs": [
        {
          "internalType": "address",
          "name": "",
          "type": "address"
        },
        {
          "internalType": "uint256",
          "name": "",
          "type": "uint256"
        }
      ],
      "name": "AssetTranches",
      "outputs": [
        {
          "internalType": "address",
          "name": "Creator",
          "type": "address"
        },
        {
          "internalType": "address",
          "name": "FixPool",
          "type": "address"
        },
        {
          "internalType": "address",
          "name": "LevPool",
          "type": "address"
        },
        {
          "internalType": "uint256",
          "name": "FixedYield",
          "type": "uint256"
        },
        {
          "internalType": "uint256",
          "name": "LRmin",
          "type": "uint256"
        },
        {
          "internalType": "uint256",
          "name": "LRmax",
          "type": "uint256"
        },
        {
          "internalType": "uint256",
          "name": "CreatedAt",
          "type": "uint256"
        },
        {
          "internalType": "uint256",
          "name": "Deadline",
          "type": "uint256"
        },
        {
          "internalType": "uint256",
          "name": "WithdrawLockPeriod",
          "type": "uint256"
        },
        {
          "internalType": "enum Types.State",
          "name": "CurrentState",
          "type": "uint8"
        }
      ],
      "stateMutability": "view",
      "type": "function"
    },
    {
      "inputs": [
        {
          "internalType": "address",
          "name": "_asset",
          "type": "address"
        },
        {
          "internalType": "uint256",
          "name": "index",
          "type": "uint256"
        },
        {
          "internalType": "enum Types.State",
          "name": "newState",
          "type": "uint8"
        }
      ],
      "name": "changePoolState",
      "outputs": [],
      "stateMutability": "nonpayable",
      "type": "function"
    },
    {
      "inputs": [
        {
          "internalType": "address",
          "name": "_asset",
          "type": "address"
        },
        {
          "internalType": "address",
          "name": "_pool",
          "type": "address"
        },
        {
          "internalType": "address",
          "name": "_poolProvider",
          "type": "address"
        },
        {
          "internalType": "address",
          "name": "_poolToken",
          "type": "address"
        },
        {
          "internalType": "address",
          "name": "_managerContract",
          "type": "address"
        },
        {
          "internalType": "string",
          "name": "_name",
          "type": "string"
        },
        {
          "internalType": "string",
          "name": "_symbol",
          "type": "string"
        },
        {
          "components": [
            {
              "internalType": "address",
              "name": "Creator",
              "type": "address"
            },
            {
              "internalType": "address",
              "name": "FixPool",
              "type": "address"
            },
            {
              "internalType": "address",
              "name": "LevPool",
              "type": "address"
            },
            {
              "internalType": "uint256",
              "name": "FixedYield",
              "type": "uint256"
            },
            {
              "internalType": "uint256",
              "name": "LRmin",
              "type": "uint256"
            },
            {
              "internalType": "uint256",
              "name": "LRmax",
              "type": "uint256"
            },
            {
              "internalType": "uint256",
              "name": "CreatedAt",
              "type": "uint256"
            },
            {
              "internalType": "uint256",
              "name": "Deadline",
              "type": "uint256"
            },
            {
              "internalType": "uint256",
              "name": "WithdrawLockPeriod",
              "type": "uint256"
            },
            {
              "internalType": "enum Types.State",
              "name": "CurrentState",
              "type": "uint8"
            }
          ],
          "internalType": "struct Types.PoolVariables",
          "name": "_variables",
          "type": "tuple"
        }
      ],
      "name": "createNewPool",
      "outputs": [],
      "stateMutability": "nonpayable",
      "type": "function"
    },
    {
      "inputs": [
        {
          "internalType": "address",
          "name": "_asset",
          "type": "address"
        },
        {
          "internalType": "uint256",
          "name": "index",
          "type": "uint256"
        }
      ],
      "name": "returnTranchesByIndex",
      "outputs": [
        {
          "components": [
            {
              "internalType": "address",
              "name": "Creator",
              "type": "address"
            },
            {
              "internalType": "address",
              "name": "FixPool",
              "type": "address"
            },
            {
              "internalType": "address",
              "name": "LevPool",
              "type": "address"
            },
            {
              "internalType": "uint256",
              "name": "FixedYield",
              "type": "uint256"
            },
            {
              "internalType": "uint256",
              "name": "LRmin",
              "type": "uint256"
            },
            {
              "internalType": "uint256",
              "name": "LRmax",
              "type": "uint256"
            },
            {
              "internalType": "uint256",
              "name": "CreatedAt",
              "type": "uint256"
            },
            {
              "internalType": "uint256",
              "name": "Deadline",
              "type": "uint256"
            },
            {
              "internalType": "uint256",
              "name": "WithdrawLockPeriod",
              "type": "uint256"
            },
            {
              "internalType": "enum Types.State",
              "name": "CurrentState",
              "type": "uint8"
            }
          ],
          "internalType": "struct Types.PoolVariables",
          "name": "",
          "type": "tuple"
        }
      ],
      "stateMutability": "view",
      "type": "function"
    }
  ],
  "bytecode": "0x608060405234801561001057600080fd5b50336000806101000a81548173ffffffffffffffffffffffffffffffffffffffff021916908373ffffffffffffffffffffffffffffffffffffffff160217905550615f1f806100606000396000f3fe60806040523480156200001157600080fd5b50600436106200005e5760003560e01c80638f2f8a791462000063578063a61194161462000099578063c0f1036f14620000cf578063e995818a14620000ef578063f0590c79146200010f575b600080fd5b6200008160048036038101906200007b919062000c6a565b6200014e565b60405162000090919062000e33565b60405180910390f35b620000b76004803603810190620000b1919062000e51565b6200034d565b604051620000c6919062000e94565b60405180910390f35b620000ed6004803603810190620000e79190620010f0565b62000365565b005b6200010d600480360381019062000107919062001200565b62000874565b005b6200012d600480360381019062000127919062000c6a565b62000a1f565b604051620001459a999897969594939291906200127e565b60405180910390f35b6200015862000afe565b600160008473ffffffffffffffffffffffffffffffffffffffff1673ffffffffffffffffffffffffffffffffffffffff1681526020019081526020016000208281548110620001ac57620001ab6200132e565b5b90600052602060002090600a0201604051806101400160405290816000820160009054906101000a900473ffffffffffffffffffffffffffffffffffffffff1673ffffffffffffffffffffffffffffffffffffffff1673ffffffffffffffffffffffffffffffffffffffff1681526020016001820160009054906101000a900473ffffffffffffffffffffffffffffffffffffffff1673ffffffffffffffffffffffffffffffffffffffff1673ffffffffffffffffffffffffffffffffffffffff1681526020016002820160009054906101000a900473ffffffffffffffffffffffffffffffffffffffff1673ffffffffffffffffffffffffffffffffffffffff1673ffffffffffffffffffffffffffffffffffffffff1681526020016003820154815260200160048201548152602001600582015481526020016006820154815260200160078201548152602001600882015481526020016009820160009054906101000a900460ff1660028111156200032c576200032b62000cd3565b5b600281111562000341576200034062000cd3565b5b81525050905092915050565b60026020528060005260406000206000915090505481565b6000600160008c73ffffffffffffffffffffffffffffffffffffffff1673ffffffffffffffffffffffffffffffffffffffff16815260200190815260200160002080549050905060008686604051602001620003c3929190620013f0565b6040516020818303038152906040528585604051602001620003e7929190620013f0565b6040516020818303038152906040528d8d8d8d8d6001896040516200040c9062000ba8565b6200042099989796959493929190620014c8565b604051809103906000f0801580156200043d573d6000803e3d6000fd5b5090506000878760405160200162000457929190620015c5565b60405160208183030381529060405286866040516020016200047b929190620015c5565b6040516020818303038152906040528e8e8e8e8e60008a604051620004a09062000ba8565b620004b499989796959493929190620014c8565b604051809103906000f080158015620004d1573d6000803e3d6000fd5b509050600073ffffffffffffffffffffffffffffffffffffffff168273ffffffffffffffffffffffffffffffffffffffff16141580156200053f5750600073ffffffffffffffffffffffffffffffffffffffff168173ffffffffffffffffffffffffffffffffffffffff1614155b6200054957600080fd5b600160008e73ffffffffffffffffffffffffffffffffffffffff1673ffffffffffffffffffffffffffffffffffffffff1681526020019081526020016000206040518061014001604052803373ffffffffffffffffffffffffffffffffffffffff1681526020018373ffffffffffffffffffffffffffffffffffffffff1681526020018473ffffffffffffffffffffffffffffffffffffffff16815260200186606001518152602001866080015181526020018660a00151815260200142815260200162dd7c00426200061d91906200161c565b815260200186610100015181526020016000600281111562000644576200064362000cd3565b5b81525090806001815401808255809150506001900390600052602060002090600a020160009091909190915060008201518160000160006101000a81548173ffffffffffffffffffffffffffffffffffffffff021916908373ffffffffffffffffffffffffffffffffffffffff16021790555060208201518160010160006101000a81548173ffffffffffffffffffffffffffffffffffffffff021916908373ffffffffffffffffffffffffffffffffffffffff16021790555060408201518160020160006101000a81548173ffffffffffffffffffffffffffffffffffffffff021916908373ffffffffffffffffffffffffffffffffffffffff160217905550606082015181600301556080820151816004015560a0820151816005015560c0820151816006015560e0820151816007015561010082015181600801556101208201518160090160006101000a81548160ff02191690836002811115620007b157620007b062000cd3565b5b02179055505050600183620007c791906200161c565b600260008f73ffffffffffffffffffffffffffffffffffffffff1673ffffffffffffffffffffffffffffffffffffffff16815260200190815260200160002081905550828d73ffffffffffffffffffffffffffffffffffffffff163373ffffffffffffffffffffffffffffffffffffffff167f706d8395dbd23eb63eef38d4a536ae54896c2cc6e5a2cc523d6948564a4f23d060405160405180910390a450505050505050505050505050565b60006200088284846200014e565b9050806020015173ffffffffffffffffffffffffffffffffffffffff16639733dc796040518163ffffffff1660e01b8152600401602060405180830381865afa158015620008d4573d6000803e3d6000fd5b505050506040513d601f19601f82011682018060405250810190620008fa919062001690565b73ffffffffffffffffffffffffffffffffffffffff163373ffffffffffffffffffffffffffffffffffffffff1614806200097f575060008054906101000a900473ffffffffffffffffffffffffffffffffffffffff1673ffffffffffffffffffffffffffffffffffffffff163373ffffffffffffffffffffffffffffffffffffffff16145b6200098957600080fd5b81600160008673ffffffffffffffffffffffffffffffffffffffff1673ffffffffffffffffffffffffffffffffffffffff1681526020019081526020016000208481548110620009de57620009dd6200132e565b5b90600052602060002090600a020160090160006101000a81548160ff0219169083600281111562000a145762000a1362000cd3565b5b021790555050505050565b6001602052816000526040600020818154811062000a3c57600080fd5b90600052602060002090600a0201600091509150508060000160009054906101000a900473ffffffffffffffffffffffffffffffffffffffff16908060010160009054906101000a900473ffffffffffffffffffffffffffffffffffffffff16908060020160009054906101000a900473ffffffffffffffffffffffffffffffffffffffff16908060030154908060040154908060050154908060060154908060070154908060080154908060090160009054906101000a900460ff1690508a565b604051806101400160405280600073ffffffffffffffffffffffffffffffffffffffff168152602001600073ffffffffffffffffffffffffffffffffffffffff168152602001600073ffffffffffffffffffffffffffffffffffffffff1681526020016000815260200160008152602001600081526020016000815260200160008152602001600081526020016000600281111562000ba25762000ba162000cd3565b5b81525090565b61482780620016c383390190565b6000604051905090565b600080fd5b600080fd5b600073ffffffffffffffffffffffffffffffffffffffff82169050919050565b600062000bf78262000bca565b9050919050565b62000c098162000bea565b811462000c1557600080fd5b50565b60008135905062000c298162000bfe565b92915050565b6000819050919050565b62000c448162000c2f565b811462000c5057600080fd5b50565b60008135905062000c648162000c39565b92915050565b6000806040838503121562000c845762000c8362000bc0565b5b600062000c948582860162000c18565b925050602062000ca78582860162000c53565b9150509250929050565b62000cbc8162000bea565b82525050565b62000ccd8162000c2f565b82525050565b7f4e487b7100000000000000000000000000000000000000000000000000000000600052602160045260246000fd5b6003811062000d165762000d1562000cd3565b5b50565b600081905062000d298262000d02565b919050565b600062000d3b8262000d19565b9050919050565b62000d4d8162000d2e565b82525050565b6101408201600082015162000d6c600085018262000cb1565b50602082015162000d81602085018262000cb1565b50604082015162000d96604085018262000cb1565b50606082015162000dab606085018262000cc2565b50608082015162000dc0608085018262000cc2565b5060a082015162000dd560a085018262000cc2565b5060c082015162000dea60c085018262000cc2565b5060e082015162000dff60e085018262000cc2565b5061010082015162000e1661010085018262000cc2565b5061012082015162000e2d61012085018262000d42565b50505050565b60006101408201905062000e4b600083018462000d53565b92915050565b60006020828403121562000e6a5762000e6962000bc0565b5b600062000e7a8482850162000c18565b91505092915050565b62000e8e8162000c2f565b82525050565b600060208201905062000eab600083018462000e83565b92915050565b600080fd5b600080fd5b600080fd5b60008083601f84011262000ed95762000ed862000eb1565b5b8235905067ffffffffffffffff81111562000ef95762000ef862000eb6565b5b60208301915083600182028301111562000f185762000f1762000ebb565b5b9250929050565b600080fd5b6000601f19601f8301169050919050565b7f4e487b7100000000000000000000000000000000000000000000000000000000600052604160045260246000fd5b62000f6f8262000f24565b810181811067ffffffffffffffff8211171562000f915762000f9062000f35565b5b80604052505050565b600062000fa662000bb6565b905062000fb4828262000f64565b919050565b6003811062000fc757600080fd5b50565b60008135905062000fdb8162000fb9565b92915050565b6000610140828403121562000ffb5762000ffa62000f1f565b5b6200100861014062000f9a565b905060006200101a8482850162000c18565b6000830152506020620010308482850162000c18565b6020830152506040620010468482850162000c18565b60408301525060606200105c8482850162000c53565b6060830152506080620010728482850162000c53565b60808301525060a0620010888482850162000c53565b60a08301525060c06200109e8482850162000c53565b60c08301525060e0620010b48482850162000c53565b60e083015250610100620010cb8482850162000c53565b61010083015250610120620010e38482850162000fca565b6101208301525092915050565b6000806000806000806000806000806102208b8d03121562001117576200111662000bc0565b5b6000620011278d828e0162000c18565b9a505060206200113a8d828e0162000c18565b99505060406200114d8d828e0162000c18565b9850506060620011608d828e0162000c18565b9750506080620011738d828e0162000c18565b96505060a08b013567ffffffffffffffff81111562001197576200119662000bc5565b5b620011a58d828e0162000ec0565b955095505060c08b013567ffffffffffffffff811115620011cb57620011ca62000bc5565b5b620011d98d828e0162000ec0565b935093505060e0620011ee8d828e0162000fe1565b9150509295989b9194979a5092959850565b6000806000606084860312156200121c576200121b62000bc0565b5b60006200122c8682870162000c18565b93505060206200123f8682870162000c53565b9250506040620012528682870162000fca565b9150509250925092565b620012678162000bea565b82525050565b620012788162000d2e565b82525050565b60006101408201905062001296600083018d6200125c565b620012a5602083018c6200125c565b620012b4604083018b6200125c565b620012c3606083018a62000e83565b620012d2608083018962000e83565b620012e160a083018862000e83565b620012f060c083018762000e83565b620012ff60e083018662000e83565b6200130f61010083018562000e83565b6200131f6101208301846200126d565b9b9a5050505050505050505050565b7f4e487b7100000000000000000000000000000000000000000000000000000000600052603260045260246000fd5b600081905092915050565b7f4c65760000000000000000000000000000000000000000000000000000000000600082015250565b6000620013a06003836200135d565b9150620013ad8262001368565b600382019050919050565b82818337600083830152505050565b6000620013d583856200135d565b9350620013e4838584620013b8565b82840190509392505050565b6000620013fd8262001391565b91506200140c828486620013c7565b91508190509392505050565b600081519050919050565b600082825260208201905092915050565b60005b838110156200145457808201518184015260208101905062001437565b8381111562001464576000848401525b50505050565b6000620014778262001418565b62001483818562001423565b93506200149581856020860162001434565b620014a08162000f24565b840191505092915050565b60008115159050919050565b620014c281620014ab565b82525050565b6000610120820190508181036000830152620014e5818c6200146a565b90508181036020830152620014fb818b6200146a565b90506200150c604083018a6200125c565b6200151b60608301896200125c565b6200152a60808301886200125c565b6200153960a08301876200125c565b6200154860c08301866200125c565b6200155760e0830185620014b7565b6200156761010083018462000e83565b9a9950505050505050505050565b7f4669780000000000000000000000000000000000000000000000000000000000600082015250565b6000620015ad6003836200135d565b9150620015ba8262001575565b600382019050919050565b6000620015d2826200159e565b9150620015e1828486620013c7565b91508190509392505050565b7f4e487b7100000000000000000000000000000000000000000000000000000000600052601160045260246000fd5b6000620016298262000c2f565b9150620016368362000c2f565b9250827fffffffffffffffffffffffffffffffffffffffffffffffffffffffffffffffff038211156200166e576200166d620015ed565b5b828201905092915050565b6000815190506200168a8162000bfe565b92915050565b600060208284031215620016a957620016a862000bc0565b5b6000620016b98482850162001679565b9150509291505056fe6101006040523480156200001257600080fd5b506040516200482738038062004827833981810160405281019062000038919062000677565b86898981818473ffffffffffffffffffffffffffffffffffffffff1663313ce5676040518163ffffffff1660e01b8152600401602060405180830381865afa15801562000089573d6000803e3d6000fd5b505050506040513d601f19601f82011682018060405250810190620000af9190620007d2565b8260009080519060200190620000c79291906200034d565b508160019080519060200190620000e09291906200034d565b508060ff1660808160ff16815250504660a0818152505062000107620002bd60201b60201c565b60c081815250505050508273ffffffffffffffffffffffffffffffffffffffff1660e08173ffffffffffffffffffffffffffffffffffffffff168152505050505082600660006101000a81548173ffffffffffffffffffffffffffffffffffffffff021916908373ffffffffffffffffffffffffffffffffffffffff16021790555085600a60006101000a81548173ffffffffffffffffffffffffffffffffffffffff021916908373ffffffffffffffffffffffffffffffffffffffff16021790555084600b60006101000a81548173ffffffffffffffffffffffffffffffffffffffff021916908373ffffffffffffffffffffffffffffffffffffffff16021790555083600860006101000a81548173ffffffffffffffffffffffffffffffffffffffff021916908373ffffffffffffffffffffffffffffffffffffffff16021790555086600760006101000a81548173ffffffffffffffffffffffffffffffffffffffff021916908373ffffffffffffffffffffffffffffffffffffffff16021790555081600860146101000a81548160ff02191690831515021790555080600981905550505050505050505050620009c7565b60007f8b73c3c69bb8fe3d512ecc4cf759cc79239f7b179b0ffacaa9a75d522b39400f6000604051620002f1919062000914565b60405180910390207fc89efdaa54c0f20c7adf612882df0950f5a951637e0307cdcb4c672f298b8bc64630604051602001620003329594939291906200096a565b60405160208183030381529060405280519060200120905090565b8280546200035b9062000833565b90600052602060002090601f0160209004810192826200037f5760008555620003cb565b82601f106200039a57805160ff1916838001178555620003cb565b82800160010185558215620003cb579182015b82811115620003ca578251825591602001919060010190620003ad565b5b509050620003da9190620003de565b5090565b5b80821115620003f9576000816000905550600101620003df565b5090565b6000604051905090565b600080fd5b600080fd5b600080fd5b600080fd5b6000601f19601f8301169050919050565b7f4e487b7100000000000000000000000000000000000000000000000000000000600052604160045260246000fd5b62000466826200041b565b810181811067ffffffffffffffff821117156200048857620004876200042c565b5b80604052505050565b60006200049d620003fd565b9050620004ab82826200045b565b919050565b600067ffffffffffffffff821115620004ce57620004cd6200042c565b5b620004d9826200041b565b9050602081019050919050565b60005b8381101562000506578082015181840152602081019050620004e9565b8381111562000516576000848401525b50505050565b6000620005336200052d84620004b0565b62000491565b90508281526020810184848401111562000552576200055162000416565b5b6200055f848285620004e6565b509392505050565b600082601f8301126200057f576200057e62000411565b5b8151620005918482602086016200051c565b91505092915050565b600073ffffffffffffffffffffffffffffffffffffffff82169050919050565b6000620005c7826200059a565b9050919050565b620005d981620005ba565b8114620005e557600080fd5b50565b600081519050620005f981620005ce565b92915050565b60008115159050919050565b6200061681620005ff565b81146200062257600080fd5b50565b60008151905062000636816200060b565b92915050565b6000819050919050565b62000651816200063c565b81146200065d57600080fd5b50565b600081519050620006718162000646565b92915050565b60008060008060008060008060006101208a8c0312156200069d576200069c62000407565b5b60008a015167ffffffffffffffff811115620006be57620006bd6200040c565b5b620006cc8c828d0162000567565b99505060208a015167ffffffffffffffff811115620006f057620006ef6200040c565b5b620006fe8c828d0162000567565b9850506040620007118c828d01620005e8565b9750506060620007248c828d01620005e8565b9650506080620007378c828d01620005e8565b95505060a06200074a8c828d01620005e8565b94505060c06200075d8c828d01620005e8565b93505060e0620007708c828d0162000625565b925050610100620007848c828d0162000660565b9150509295985092959850929598565b600060ff82169050919050565b620007ac8162000794565b8114620007b857600080fd5b50565b600081519050620007cc81620007a1565b92915050565b600060208284031215620007eb57620007ea62000407565b5b6000620007fb84828501620007bb565b91505092915050565b7f4e487b7100000000000000000000000000000000000000000000000000000000600052602260045260246000fd5b600060028204905060018216806200084c57607f821691505b6020821081141562000863576200086262000804565b5b50919050565b600081905092915050565b60008190508160005260206000209050919050565b60008154620008988162000833565b620008a4818662000869565b94506001821660008114620008c25760018114620008d4576200090b565b60ff198316865281860193506200090b565b620008df8562000874565b60005b838110156200090357815481890152600182019150602081019050620008e2565b838801955050505b50505092915050565b600062000922828462000889565b915081905092915050565b6000819050919050565b62000942816200092d565b82525050565b62000953816200063c565b82525050565b6200096481620005ba565b82525050565b600060a08201905062000981600083018862000937565b62000990602083018762000937565b6200099f604083018662000937565b620009ae606083018562000948565b620009bd608083018462000959565b9695505050505050565b60805160a05160c05160e051613e1162000a166000396000818161105b0152818161111101528181611669015261213c015260006110340152600061100001526000610fda0152613e116000f3fe608060405234801561001057600080fd5b50600436106102115760003560e01c806370a0823111610125578063c63d75b6116100ad578063d505accf1161007c578063d505accf146106c8578063d905777e146106e4578063dd62ed3e14610714578063e1254fba14610744578063ef8b30f71461077457610211565b8063c63d75b61461061c578063c6b21b021461064c578063c6e6f59214610668578063ce96cb771461069857610211565b80639733dc79116100f45780639733dc791461053e578063a9059cbb1461055c578063b3d7f6b91461058c578063b460af94146105bc578063ba087652146105ec57610211565b806370a08231146104905780637ecebe00146104c057806394bf804d146104f057806395d89b411461052057610211565b806323b872dd116101a85780633644e515116101775780633644e515146103c457806338d52e0f146103e2578063402d267d146104005780634cdad506146104305780636e553f651461046057610211565b806323b872dd1461033a57806330adf81f1461036a57806330f3e3da14610388578063313ce567146103a657610211565b80630a28a477116101e45780630a28a477146102b257806316f0115b146102e257806318160ddd146103005780632192295e1461031e57610211565b806301e1d1141461021657806306fdde031461023457806307a2d13a14610252578063095ea7b314610282575b600080fd5b61021e6107a4565b60405161022b91906129f8565b60405180910390f35b61023c610847565b6040516102499190612aac565b60405180910390f35b61026c60048036038101906102679190612b09565b6108d5565b60405161027991906129f8565b60405180910390f35b61029c60048036038101906102979190612b94565b610910565b6040516102a99190612bef565b60405180910390f35b6102cc60048036038101906102c79190612b09565b610a02565b6040516102d991906129f8565b60405180910390f35b6102ea610a3d565b6040516102f79190612c69565b60405180910390f35b610308610a63565b60405161031591906129f8565b60405180910390f35b61033860048036038101906103339190612b94565b610a69565b005b610354600480360381019061034f9190612c84565b610cdc565b6040516103619190612bef565b60405180910390f35b610372610f26565b60405161037f9190612cf0565b60405180910390f35b610390610f4a565b60405161039d9190612dc9565b60405180910390f35b6103ae610fd8565b6040516103bb9190612e07565b60405180910390f35b6103cc610ffc565b6040516103d99190612cf0565b60405180910390f35b6103ea611059565b6040516103f79190612e43565b60405180910390f35b61041a60048036038101906104159190612e5e565b61107d565b60405161042791906129f8565b60405180910390f35b61044a60048036038101906104459190612b09565b6110a7565b60405161045791906129f8565b60405180910390f35b61047a60048036038101906104759190612e8b565b6110b9565b60405161048791906129f8565b60405180910390f35b6104aa60048036038101906104a59190612e5e565b6111d7565b6040516104b791906129f8565b60405180910390f35b6104da60048036038101906104d59190612e5e565b6111ef565b6040516104e791906129f8565b60405180910390f35b61050a60048036038101906105059190612e8b565b611207565b60405161051791906129f8565b60405180910390f35b610528611256565b6040516105359190612aac565b60405180910390f35b6105466112e4565b6040516105539190612eda565b60405180910390f35b61057660048036038101906105719190612b94565b61130a565b6040516105839190612bef565b60405180910390f35b6105a660048036038101906105a19190612b09565b61141e565b6040516105b391906129f8565b60405180910390f35b6105d660048036038101906105d19190612ef5565b611459565b6040516105e391906129f8565b60405180910390f35b61060660048036038101906106019190612ef5565b6116b4565b60405161061391906129f8565b60405180910390f35b61063660048036038101906106319190612e5e565b611704565b60405161064391906129f8565b60405180910390f35b61066660048036038101906106619190612b94565b61172e565b005b610682600480360381019061067d9190612b09565b611809565b60405161068f91906129f8565b60405180910390f35b6106b260048036038101906106ad9190612e5e565b61189e565b6040516106bf91906129f8565b60405180910390f35b6106e260048036038101906106dd9190612fa0565b6118ef565b005b6106fe60048036038101906106f99190612e5e565b611bee565b60405161070b91906129f8565b60405180910390f35b61072e60048036038101906107299190613042565b611c37565b60405161073b91906129f8565b60405180910390f35b61075e60048036038101906107599190612e5e565b611c5c565b60405161076b91906129f8565b60405180910390f35b61078e60048036038101906107899190612b09565b611ca8565b60405161079b91906129f8565b60405180910390f35b6000600860009054906101000a900473ffffffffffffffffffffffffffffffffffffffff1673ffffffffffffffffffffffffffffffffffffffff166370a08231306040518263ffffffff1660e01b81526004016108019190612eda565b602060405180830381865afa15801561081e573d6000803e3d6000fd5b505050506040513d601f19601f820116820180604052508101906108429190613097565b905090565b60008054610854906130f3565b80601f0160208091040260200160405190810160405280929190818152602001828054610880906130f3565b80156108cd5780601f106108a2576101008083540402835291602001916108cd565b820191906000526020600020905b8154815290600101906020018083116108b057829003601f168201915b505050505081565b600080600254905060008114610906576109016108f06107a4565b8285611cba9092919063ffffffff16565b610908565b825b915050919050565b600081600460003373ffffffffffffffffffffffffffffffffffffffff1673ffffffffffffffffffffffffffffffffffffffff16815260200190815260200160002060008573ffffffffffffffffffffffffffffffffffffffff1673ffffffffffffffffffffffffffffffffffffffff168152602001908152602001600020819055508273ffffffffffffffffffffffffffffffffffffffff163373ffffffffffffffffffffffffffffffffffffffff167f8c5be1e5ebec7d5bd14f71427d1e84f3dd0314c0f7b2291e5b200ac8c7c3b925846040516109f091906129f8565b60405180910390a36001905092915050565b600080600254905060008114610a3357610a2e81610a1e6107a4565b85611ce29092919063ffffffff16565b610a35565b825b915050919050565b600a60009054906101000a900473ffffffffffffffffffffffffffffffffffffffff1681565b60025481565b600660009054906101000a900473ffffffffffffffffffffffffffffffffffffffff1673ffffffffffffffffffffffffffffffffffffffff163373ffffffffffffffffffffffffffffffffffffffff1614610af9576040517f08c379a0000000000000000000000000000000000000000000000000000000008152600401610af090613171565b60405180910390fd5b6000600660009054906101000a900473ffffffffffffffffffffffffffffffffffffffff1673ffffffffffffffffffffffffffffffffffffffff16638f2f8a79600760009054906101000a900473ffffffffffffffffffffffffffffffffffffffff166009546040518363ffffffff1660e01b8152600401610b7c929190613191565b61014060405180830381865afa158015610b9a573d6000803e3d6000fd5b505050506040513d601f19601f82011682018060405250810190610bbe919061336a565b9050806020015173ffffffffffffffffffffffffffffffffffffffff168373ffffffffffffffffffffffffffffffffffffffff161480610c2d5750806040015173ffffffffffffffffffffffffffffffffffffffff168373ffffffffffffffffffffffffffffffffffffffff16145b610c3657600080fd5b600860009054906101000a900473ffffffffffffffffffffffffffffffffffffffff1673ffffffffffffffffffffffffffffffffffffffff1663a9059cbb84846040518363ffffffff1660e01b8152600401610c93929190613191565b6020604051808303816000875af1158015610cb2573d6000803e3d6000fd5b505050506040513d601f19601f82011682018060405250810190610cd691906133c4565b50505050565b600080600460008673ffffffffffffffffffffffffffffffffffffffff1673ffffffffffffffffffffffffffffffffffffffff16815260200190815260200160002060003373ffffffffffffffffffffffffffffffffffffffff1673ffffffffffffffffffffffffffffffffffffffff1681526020019081526020016000205490507fffffffffffffffffffffffffffffffffffffffffffffffffffffffffffffffff8114610e12578281610d919190613420565b600460008773ffffffffffffffffffffffffffffffffffffffff1673ffffffffffffffffffffffffffffffffffffffff16815260200190815260200160002060003373ffffffffffffffffffffffffffffffffffffffff1673ffffffffffffffffffffffffffffffffffffffff168152602001908152602001600020819055505b82600360008773ffffffffffffffffffffffffffffffffffffffff1673ffffffffffffffffffffffffffffffffffffffff1681526020019081526020016000206000828254610e619190613420565b9250508190555082600360008673ffffffffffffffffffffffffffffffffffffffff1673ffffffffffffffffffffffffffffffffffffffff168152602001908152602001600020600082825401925050819055508373ffffffffffffffffffffffffffffffffffffffff168573ffffffffffffffffffffffffffffffffffffffff167fddf252ad1be2c89b69c2b068fc378daa952ba7f163c4a11628f55a4df523b3ef85604051610f1291906129f8565b60405180910390a360019150509392505050565b7f6e71edae12b1b97f4d1f60370fef10105fa2faae0126114a169c64845d6126c981565b6060600c805480602002602001604051908101604052809291908181526020018280548015610fce57602002820191906000526020600020905b8160009054906101000a900473ffffffffffffffffffffffffffffffffffffffff1673ffffffffffffffffffffffffffffffffffffffff1681526020019060010190808311610f84575b5050505050905090565b7f000000000000000000000000000000000000000000000000000000000000000081565b60007f000000000000000000000000000000000000000000000000000000000000000046146110325761102d611d14565b611054565b7f00000000000000000000000000000000000000000000000000000000000000005b905090565b7f000000000000000000000000000000000000000000000000000000000000000081565b60007fffffffffffffffffffffffffffffffffffffffffffffffffffffffffffffffff9050919050565b60006110b2826108d5565b9050919050565b6000806110c584611ca8565b9150811415611109576040517f08c379a0000000000000000000000000000000000000000000000000000000008152600401611100906134a0565b60405180910390fd5b6111563330857f000000000000000000000000000000000000000000000000000000000000000073ffffffffffffffffffffffffffffffffffffffff16611da0909392919063ffffffff16565b6111608282611e3f565b8173ffffffffffffffffffffffffffffffffffffffff163373ffffffffffffffffffffffffffffffffffffffff167fdcbc1c05240f31ff3ad067ef1ee35ce4997762752e3a095284754544f4c709d785846040516111bf9291906134c0565b60405180910390a36111d18382611f0f565b92915050565b60036020528060005260406000206000915090505481565b60056020528060005260406000206000915090505481565b60008060011461124c576040517f08c379a00000000000000000000000000000000000000000000000000000000081526004016112439061355b565b60405180910390fd5b6000905092915050565b60018054611263906130f3565b80601f016020809104026020016040519081016040528092919081815260200182805461128f906130f3565b80156112dc5780601f106112b1576101008083540402835291602001916112dc565b820191906000526020600020905b8154815290600101906020018083116112bf57829003601f168201915b505050505081565b600660009054906101000a900473ffffffffffffffffffffffffffffffffffffffff1681565b600081600360003373ffffffffffffffffffffffffffffffffffffffff1673ffffffffffffffffffffffffffffffffffffffff168152602001908152602001600020600082825461135b9190613420565b9250508190555081600360008573ffffffffffffffffffffffffffffffffffffffff1673ffffffffffffffffffffffffffffffffffffffff168152602001908152602001600020600082825401925050819055508273ffffffffffffffffffffffffffffffffffffffff163373ffffffffffffffffffffffffffffffffffffffff167fddf252ad1be2c89b69c2b068fc378daa952ba7f163c4a11628f55a4df523b3ef8460405161140c91906129f8565b60405180910390a36001905092915050565b60008060025490506000811461144f5761144a6114396107a4565b8285611ce29092919063ffffffff16565b611451565b825b915050919050565b600061146484610a02565b90508173ffffffffffffffffffffffffffffffffffffffff163373ffffffffffffffffffffffffffffffffffffffff16146115d0576000600460008473ffffffffffffffffffffffffffffffffffffffff1673ffffffffffffffffffffffffffffffffffffffff16815260200190815260200160002060003373ffffffffffffffffffffffffffffffffffffffff1673ffffffffffffffffffffffffffffffffffffffff1681526020019081526020016000205490507fffffffffffffffffffffffffffffffffffffffffffffffffffffffffffffffff81146115ce57818161154d9190613420565b600460008573ffffffffffffffffffffffffffffffffffffffff1673ffffffffffffffffffffffffffffffffffffffff16815260200190815260200160002060003373ffffffffffffffffffffffffffffffffffffffff1673ffffffffffffffffffffffffffffffffffffffff168152602001908152602001600020819055505b505b6115da84826122c1565b6115e48282612712565b8173ffffffffffffffffffffffffffffffffffffffff168373ffffffffffffffffffffffffffffffffffffffff163373ffffffffffffffffffffffffffffffffffffffff167ffbde797d201c681b91056529119e0b02407c7bb96a4a2c75c01fc9667232c8db878560405161165a9291906134c0565b60405180910390a46116ad83857f000000000000000000000000000000000000000000000000000000000000000073ffffffffffffffffffffffffffffffffffffffff166127e29092919063ffffffff16565b9392505050565b6000806001146116f9576040517f08c379a00000000000000000000000000000000000000000000000000000000081526004016116f09061355b565b60405180910390fd5b600090509392505050565b60007fffffffffffffffffffffffffffffffffffffffffffffffffffffffffffffffff9050919050565b600660009054906101000a900473ffffffffffffffffffffffffffffffffffffffff1673ffffffffffffffffffffffffffffffffffffffff163373ffffffffffffffffffffffffffffffffffffffff16146117be576040517f08c379a00000000000000000000000000000000000000000000000000000000081526004016117b590613171565b60405180910390fd5b80600d60008473ffffffffffffffffffffffffffffffffffffffff1673ffffffffffffffffffffffffffffffffffffffff168152602001908152602001600020600001819055505050565b6000806002549050600061181b6107a4565b90506000821461186a576000811415611869576040517f08c379a0000000000000000000000000000000000000000000000000000000008152600401611860906135c7565b60405180910390fd5b5b600082146118935761188e8261187e6107a4565b86611cba9092919063ffffffff16565b611895565b835b92505050919050565b60006118e8600360008473ffffffffffffffffffffffffffffffffffffffff1673ffffffffffffffffffffffffffffffffffffffff168152602001908152602001600020546108d5565b9050919050565b42841015611932576040517f08c379a000000000000000000000000000000000000000000000000000000000815260040161192990613633565b60405180910390fd5b600061193c610ffc565b7f6e71edae12b1b97f4d1f60370fef10105fa2faae0126114a169c64845d6126c9898989600560008e73ffffffffffffffffffffffffffffffffffffffff1673ffffffffffffffffffffffffffffffffffffffff1681526020019081526020016000206000815480929190600101919050558a6040516020016119c496959493929190613653565b604051602081830303815290604052805190602001206040516020016119eb92919061372c565b604051602081830303815290604052805190602001209050600060018286868660405160008152602001604052604051611a289493929190613763565b6020604051602081039080840390855afa158015611a4a573d6000803e3d6000fd5b505050602060405103519050600073ffffffffffffffffffffffffffffffffffffffff168173ffffffffffffffffffffffffffffffffffffffff1614158015611abe57508873ffffffffffffffffffffffffffffffffffffffff168173ffffffffffffffffffffffffffffffffffffffff16145b611afd576040517f08c379a0000000000000000000000000000000000000000000000000000000008152600401611af4906137f4565b60405180910390fd5b86600460008373ffffffffffffffffffffffffffffffffffffffff1673ffffffffffffffffffffffffffffffffffffffff16815260200190815260200160002060008a73ffffffffffffffffffffffffffffffffffffffff1673ffffffffffffffffffffffffffffffffffffffff1681526020019081526020016000208190555050508573ffffffffffffffffffffffffffffffffffffffff168773ffffffffffffffffffffffffffffffffffffffff167f8c5be1e5ebec7d5bd14f71427d1e84f3dd0314c0f7b2291e5b200ac8c7c3b92587604051611bdd91906129f8565b60405180910390a350505050505050565b6000600360008373ffffffffffffffffffffffffffffffffffffffff1673ffffffffffffffffffffffffffffffffffffffff168152602001908152602001600020549050919050565b6004602052816000526040600020602052806000526040600020600091509150505481565b6000600d60008373ffffffffffffffffffffffffffffffffffffffff1673ffffffffffffffffffffffffffffffffffffffff168152602001908152602001600020600001549050919050565b6000611cb382611809565b9050919050565b60008284029050828482041484151782151516611cd657600080fd5b81810490509392505050565b60008284029050828482041484151782151516611cfe57600080fd5b6001826001830304018115150290509392505050565b60007f8b73c3c69bb8fe3d512ecc4cf759cc79239f7b179b0ffacaa9a75d522b39400f6000604051611d4691906138b3565b60405180910390207fc89efdaa54c0f20c7adf612882df0950f5a951637e0307cdcb4c672f298b8bc64630604051602001611d859594939291906138ca565b60405160208183030381529060405280519060200120905090565b60006040517f23b872dd0000000000000000000000000000000000000000000000000000000081528460048201528360248201528260448201526020600060648360008a5af13d15601f3d1160016000511416171691505080611e38576040517f08c379a0000000000000000000000000000000000000000000000000000000008152600401611e2f90613969565b60405180910390fd5b5050505050565b8060026000828254611e519190613989565b9250508190555080600360008473ffffffffffffffffffffffffffffffffffffffff1673ffffffffffffffffffffffffffffffffffffffff168152602001908152602001600020600082825401925050819055508173ffffffffffffffffffffffffffffffffffffffff16600073ffffffffffffffffffffffffffffffffffffffff167fddf252ad1be2c89b69c2b068fc378daa952ba7f163c4a11628f55a4df523b3ef83604051611f0391906129f8565b60405180910390a35050565b6000600660009054906101000a900473ffffffffffffffffffffffffffffffffffffffff1673ffffffffffffffffffffffffffffffffffffffff16638f2f8a79600760009054906101000a900473ffffffffffffffffffffffffffffffffffffffff166009546040518363ffffffff1660e01b8152600401611f92929190613191565b61014060405180830381865afa158015611fb0573d6000803e3d6000fd5b505050506040513d601f19601f82011682018060405250810190611fd4919061336a565b905060016002811115611fea57611fe96139df565b5b8161012001516002811115612002576120016139df565b5b1415612132576000600281111561201c5761201b6139df565b5b600660009054906101000a900473ffffffffffffffffffffffffffffffffffffffff1673ffffffffffffffffffffffffffffffffffffffff16631258fe73600760009054906101000a900473ffffffffffffffffffffffffffffffffffffffff166009546040518363ffffffff1660e01b815260040161209d929190613191565b602060405180830381865afa1580156120ba573d6000803e3d6000fd5b505050506040513d601f19601f820116820180604052508101906120de9190613a33565b60028111156120f0576120ef6139df565b5b1415612131576040517f08c379a000000000000000000000000000000000000000000000000000000000815260040161212890613ad2565b60405180910390fd5b5b61213a61287a565b7f000000000000000000000000000000000000000000000000000000000000000073ffffffffffffffffffffffffffffffffffffffff1663095ea7b3600a60009054906101000a900473ffffffffffffffffffffffffffffffffffffffff16856040518363ffffffff1660e01b81526004016121b7929190613191565b6020604051808303816000875af11580156121d6573d6000803e3d6000fd5b505050506040513d601f19601f820116820180604052508101906121fa91906133c4565b506122053084610910565b50600a60009054906101000a900473ffffffffffffffffffffffffffffffffffffffff1673ffffffffffffffffffffffffffffffffffffffff1663617ba037600760009054906101000a900473ffffffffffffffffffffffffffffffffffffffff16853060006040518563ffffffff1660e01b815260040161228a9493929190613b3b565b600060405180830381600087803b1580156122a457600080fd5b505af11580156122b8573d6000803e3d6000fd5b50505050505050565b600660009054906101000a900473ffffffffffffffffffffffffffffffffffffffff1673ffffffffffffffffffffffffffffffffffffffff163373ffffffffffffffffffffffffffffffffffffffff16148061235c575081600360003373ffffffffffffffffffffffffffffffffffffffff1673ffffffffffffffffffffffffffffffffffffffff1681526020019081526020016000205411155b61239b576040517f08c379a000000000000000000000000000000000000000000000000000000000815260040161239290613bcc565b60405180910390fd5b6000600660009054906101000a900473ffffffffffffffffffffffffffffffffffffffff1673ffffffffffffffffffffffffffffffffffffffff16638f2f8a79600760009054906101000a900473ffffffffffffffffffffffffffffffffffffffff166009546040518363ffffffff1660e01b815260040161241e929190613191565b61014060405180830381865afa15801561243c573d6000803e3d6000fd5b505050506040513d601f19601f82011682018060405250810190612460919061336a565b905060008311801561247f5750600060058461247c9190613c1b565b14155b6124be576040517f08c379a00000000000000000000000000000000000000000000000000000000081526004016124b590613cbe565b60405180910390fd5b600160028111156124d2576124d16139df565b5b81610120015160028111156124ea576124e96139df565b5b14156126485760006002811115612504576125036139df565b5b600660009054906101000a900473ffffffffffffffffffffffffffffffffffffffff1673ffffffffffffffffffffffffffffffffffffffff16631258fe73600760009054906101000a900473ffffffffffffffffffffffffffffffffffffffff166009546040518363ffffffff1660e01b8152600401612585929190613191565b602060405180830381865afa1580156125a2573d6000803e3d6000fd5b505050506040513d601f19601f820116820180604052508101906125c69190613a33565b60028111156125d8576125d76139df565b5b1415612619576040517f08c379a000000000000000000000000000000000000000000000000000000000815260040161261090613ad2565b60405180910390fd5b612627816101000151612950565b61264757600360058461263a9190613c1b565b6126449190613cde565b92505b5b600a60009054906101000a900473ffffffffffffffffffffffffffffffffffffffff1673ffffffffffffffffffffffffffffffffffffffff166369328dec600760009054906101000a900473ffffffffffffffffffffffffffffffffffffffff1685306040518463ffffffff1660e01b81526004016126c993929190613d38565b6020604051808303816000875af11580156126e8573d6000803e3d6000fd5b505050506040513d601f19601f8201168201806040525081019061270c9190613097565b50505050565b80600360008473ffffffffffffffffffffffffffffffffffffffff1673ffffffffffffffffffffffffffffffffffffffff16815260200190815260200160002060008282546127619190613420565b9250508190555080600260008282540392505081905550600073ffffffffffffffffffffffffffffffffffffffff168273ffffffffffffffffffffffffffffffffffffffff167fddf252ad1be2c89b69c2b068fc378daa952ba7f163c4a11628f55a4df523b3ef836040516127d691906129f8565b60405180910390a35050565b60006040517fa9059cbb000000000000000000000000000000000000000000000000000000008152836004820152826024820152602060006044836000895af13d15601f3d1160016000511416171691505080612874576040517f08c379a000000000000000000000000000000000000000000000000000000000815260040161286b90613dbb565b60405180910390fd5b50505050565b6000600d60003373ffffffffffffffffffffffffffffffffffffffff1673ffffffffffffffffffffffffffffffffffffffff16815260200190815260200160002060405180604001604052908160008201548152602001600182015481525050905060008160200151141561294d57600c339080600181540180825580915050600190039060005260206000200160009091909190916101000a81548173ffffffffffffffffffffffffffffffffffffffff021916908373ffffffffffffffffffffffffffffffffffffffff1602179055505b50565b600080600d60003373ffffffffffffffffffffffffffffffffffffffff1673ffffffffffffffffffffffffffffffffffffffff1681526020019081526020016000206040518060400160405290816000820154815260200160018201548152505090508281602001516129c39190613989565b4210156129d45760009150506129da565b60019150505b919050565b6000819050919050565b6129f2816129df565b82525050565b6000602082019050612a0d60008301846129e9565b92915050565b600081519050919050565b600082825260208201905092915050565b60005b83811015612a4d578082015181840152602081019050612a32565b83811115612a5c576000848401525b50505050565b6000601f19601f8301169050919050565b6000612a7e82612a13565b612a888185612a1e565b9350612a98818560208601612a2f565b612aa181612a62565b840191505092915050565b60006020820190508181036000830152612ac68184612a73565b905092915050565b6000604051905090565b600080fd5b612ae6816129df565b8114612af157600080fd5b50565b600081359050612b0381612add565b92915050565b600060208284031215612b1f57612b1e612ad8565b5b6000612b2d84828501612af4565b91505092915050565b600073ffffffffffffffffffffffffffffffffffffffff82169050919050565b6000612b6182612b36565b9050919050565b612b7181612b56565b8114612b7c57600080fd5b50565b600081359050612b8e81612b68565b92915050565b60008060408385031215612bab57612baa612ad8565b5b6000612bb985828601612b7f565b9250506020612bca85828601612af4565b9150509250929050565b60008115159050919050565b612be981612bd4565b82525050565b6000602082019050612c046000830184612be0565b92915050565b6000819050919050565b6000612c2f612c2a612c2584612b36565b612c0a565b612b36565b9050919050565b6000612c4182612c14565b9050919050565b6000612c5382612c36565b9050919050565b612c6381612c48565b82525050565b6000602082019050612c7e6000830184612c5a565b92915050565b600080600060608486031215612c9d57612c9c612ad8565b5b6000612cab86828701612b7f565b9350506020612cbc86828701612b7f565b9250506040612ccd86828701612af4565b9150509250925092565b6000819050919050565b612cea81612cd7565b82525050565b6000602082019050612d056000830184612ce1565b92915050565b600081519050919050565b600082825260208201905092915050565b6000819050602082019050919050565b612d4081612b56565b82525050565b6000612d528383612d37565b60208301905092915050565b6000602082019050919050565b6000612d7682612d0b565b612d808185612d16565b9350612d8b83612d27565b8060005b83811015612dbc578151612da38882612d46565b9750612dae83612d5e565b925050600181019050612d8f565b5085935050505092915050565b60006020820190508181036000830152612de38184612d6b565b905092915050565b600060ff82169050919050565b612e0181612deb565b82525050565b6000602082019050612e1c6000830184612df8565b92915050565b6000612e2d82612c36565b9050919050565b612e3d81612e22565b82525050565b6000602082019050612e586000830184612e34565b92915050565b600060208284031215612e7457612e73612ad8565b5b6000612e8284828501612b7f565b91505092915050565b60008060408385031215612ea257612ea1612ad8565b5b6000612eb085828601612af4565b9250506020612ec185828601612b7f565b9150509250929050565b612ed481612b56565b82525050565b6000602082019050612eef6000830184612ecb565b92915050565b600080600060608486031215612f0e57612f0d612ad8565b5b6000612f1c86828701612af4565b9350506020612f2d86828701612b7f565b9250506040612f3e86828701612b7f565b9150509250925092565b612f5181612deb565b8114612f5c57600080fd5b50565b600081359050612f6e81612f48565b92915050565b612f7d81612cd7565b8114612f8857600080fd5b50565b600081359050612f9a81612f74565b92915050565b600080600080600080600060e0888a031215612fbf57612fbe612ad8565b5b6000612fcd8a828b01612b7f565b9750506020612fde8a828b01612b7f565b9650506040612fef8a828b01612af4565b95505060606130008a828b01612af4565b94505060806130118a828b01612f5f565b93505060a06130228a828b01612f8b565b92505060c06130338a828b01612f8b565b91505092959891949750929550565b6000806040838503121561305957613058612ad8565b5b600061306785828601612b7f565b925050602061307885828601612b7f565b9150509250929050565b60008151905061309181612add565b92915050565b6000602082840312156130ad576130ac612ad8565b5b60006130bb84828501613082565b91505092915050565b7f4e487b7100000000000000000000000000000000000000000000000000000000600052602260045260246000fd5b6000600282049050600182168061310b57607f821691505b6020821081141561311f5761311e6130c4565b5b50919050565b7f4e6f7420617574686f72697a656420746f2063616c6c00000000000000000000600082015250565b600061315b601683612a1e565b915061316682613125565b602082019050919050565b6000602082019050818103600083015261318a8161314e565b9050919050565b60006040820190506131a66000830185612ecb565b6131b360208301846129e9565b9392505050565b600080fd5b7f4e487b7100000000000000000000000000000000000000000000000000000000600052604160045260246000fd5b6131f782612a62565b810181811067ffffffffffffffff82111715613216576132156131bf565b5b80604052505050565b6000613229612ace565b905061323582826131ee565b919050565b60008151905061324981612b68565b92915050565b6003811061325c57600080fd5b50565b60008151905061326e8161324f565b92915050565b6000610140828403121561328b5761328a6131ba565b5b61329661014061321f565b905060006132a68482850161323a565b60008301525060206132ba8482850161323a565b60208301525060406132ce8482850161323a565b60408301525060606132e284828501613082565b60608301525060806132f684828501613082565b60808301525060a061330a84828501613082565b60a08301525060c061331e84828501613082565b60c08301525060e061333284828501613082565b60e08301525061010061334784828501613082565b6101008301525061012061335d8482850161325f565b6101208301525092915050565b6000610140828403121561338157613380612ad8565b5b600061338f84828501613274565b91505092915050565b6133a181612bd4565b81146133ac57600080fd5b50565b6000815190506133be81613398565b92915050565b6000602082840312156133da576133d9612ad8565b5b60006133e8848285016133af565b91505092915050565b7f4e487b7100000000000000000000000000000000000000000000000000000000600052601160045260246000fd5b600061342b826129df565b9150613436836129df565b925082821015613449576134486133f1565b5b828203905092915050565b7f5a45524f5f534841524553000000000000000000000000000000000000000000600082015250565b600061348a600b83612a1e565b915061349582613454565b602082019050919050565b600060208201905081810360008301526134b98161347d565b9050919050565b60006040820190506134d560008301856129e9565b6134e260208301846129e9565b9392505050565b7f6f6e6c792077617920746f2070726f76696465206c697175696469747920697360008201527f206279207573696e67206465706f736974000000000000000000000000000000602082015250565b6000613545603183612a1e565b9150613550826134e9565b604082019050919050565b6000602082019050818103600083015261357481613538565b9050919050565b7f7774660000000000000000000000000000000000000000000000000000000000600082015250565b60006135b1600383612a1e565b91506135bc8261357b565b602082019050919050565b600060208201905081810360008301526135e0816135a4565b9050919050565b7f5045524d49545f444541444c494e455f45585049524544000000000000000000600082015250565b600061361d601783612a1e565b9150613628826135e7565b602082019050919050565b6000602082019050818103600083015261364c81613610565b9050919050565b600060c0820190506136686000830189612ce1565b6136756020830188612ecb565b6136826040830187612ecb565b61368f60608301866129e9565b61369c60808301856129e9565b6136a960a08301846129e9565b979650505050505050565b600081905092915050565b7f1901000000000000000000000000000000000000000000000000000000000000600082015250565b60006136f56002836136b4565b9150613700826136bf565b600282019050919050565b6000819050919050565b61372661372182612cd7565b61370b565b82525050565b6000613737826136e8565b91506137438285613715565b6020820191506137538284613715565b6020820191508190509392505050565b60006080820190506137786000830187612ce1565b6137856020830186612df8565b6137926040830185612ce1565b61379f6060830184612ce1565b95945050505050565b7f494e56414c49445f5349474e4552000000000000000000000000000000000000600082015250565b60006137de600e83612a1e565b91506137e9826137a8565b602082019050919050565b6000602082019050818103600083015261380d816137d1565b9050919050565b600081905092915050565b60008190508160005260206000209050919050565b60008154613841816130f3565b61384b8186613814565b945060018216600081146138665760018114613877576138aa565b60ff198316865281860193506138aa565b6138808561381f565b60005b838110156138a257815481890152600182019150602081019050613883565b838801955050505b50505092915050565b60006138bf8284613834565b915081905092915050565b600060a0820190506138df6000830188612ce1565b6138ec6020830187612ce1565b6138f96040830186612ce1565b61390660608301856129e9565b6139136080830184612ecb565b9695505050505050565b7f5452414e534645525f46524f4d5f4641494c4544000000000000000000000000600082015250565b6000613953601483612a1e565b915061395e8261391d565b602082019050919050565b6000602082019050818103600083015261398281613946565b9050919050565b6000613994826129df565b915061399f836129df565b9250827fffffffffffffffffffffffffffffffffffffffffffffffffffffffffffffffff038211156139d4576139d36133f1565b5b828201905092915050565b7f4e487b7100000000000000000000000000000000000000000000000000000000600052602160045260246000fd5b60038110613a1b57600080fd5b50565b600081519050613a2d81613a0e565b92915050565b600060208284031215613a4957613a48612ad8565b5b6000613a5784828501613a1e565b91505092915050565b7f546865204c6576657261676520466163746f7220776f756c64206265206f757460008201527f206f6620626f756e642e00000000000000000000000000000000000000000000602082015250565b6000613abc602a83612a1e565b9150613ac782613a60565b604082019050919050565b60006020820190508181036000830152613aeb81613aaf565b9050919050565b6000819050919050565b600061ffff82169050919050565b6000613b25613b20613b1b84613af2565b612c0a565b613afc565b9050919050565b613b3581613b0a565b82525050565b6000608082019050613b506000830187612ecb565b613b5d60208301866129e9565b613b6a6040830185612ecb565b613b776060830184613b2c565b95945050505050565b7f4e6f7420617574686f72697a656420746f207769746864726177000000000000600082015250565b6000613bb6601a83612a1e565b9150613bc182613b80565b602082019050919050565b60006020820190508181036000830152613be581613ba9565b9050919050565b7f4e487b7100000000000000000000000000000000000000000000000000000000600052601260045260246000fd5b6000613c26826129df565b9150613c31836129df565b925082613c4157613c40613bec565b5b828204905092915050565b7f596f75206d7573742077697468647261772061206e6f6e2d7a65726f20616d6f60008201527f756e74206f7220612062696767657220616d6f756e742e000000000000000000602082015250565b6000613ca8603783612a1e565b9150613cb382613c4c565b604082019050919050565b60006020820190508181036000830152613cd781613c9b565b9050919050565b6000613ce9826129df565b9150613cf4836129df565b9250817fffffffffffffffffffffffffffffffffffffffffffffffffffffffffffffffff0483118215151615613d2d57613d2c6133f1565b5b828202905092915050565b6000606082019050613d4d6000830186612ecb565b613d5a60208301856129e9565b613d676040830184612ecb565b949350505050565b7f5452414e534645525f4641494c45440000000000000000000000000000000000600082015250565b6000613da5600f83612a1e565b9150613db082613d6f565b602082019050919050565b60006020820190508181036000830152613dd481613d98565b905091905056fea2646970667358221220174ade0afa3d979c0bbf2a6e43075310c1e2256cff1d58bed3cb89c2d0c21a0e64736f6c634300080a0033a264697066735822122036c78904e620b153e3b14d13f5e763be52ed3bfa0387b7669d7d67f6962b247664736f6c634300080a0033",
  "linkReferences": {},
  "deployedLinkReferences": {}
}